:100000000C9462000C948A000C948A000C948A0070
:100010000C948A000C948A000C948A000C948A0038
:100020000C948A000C948A000C948A000C948A0028
:100030000C948A000C948A000C948A000C948A0018
:100040000C94E2030C948A000C9452040C942C043B
:100050000C948A000C948A000C948A000C948A00F8
:100060000C948A000C948A000000000024002700F1
:100070002A0000000000250028002B0000000000DE
:1000800023002600290004040404040404040202DA
:100090000202020203030303030301020408102007
:1000A0004080010204081020010204081020000012
:1000B0000008000201000003040700000000000027
:1000C0000000840411241FBECFEFD4E0DEBFCDBFFB
:1000D00023E0A8E1B1E001C01D92A335B207E1F72A
:1000E00011E0A0E0B1E0EEEEFEE002C005900D925E
:1000F000A831B107D9F710E0C2E6D0E004C02197DB
:10010000FE010E944807C136D107C9F70E946E065A
:100110000C9475070C940000833081F028F4813032
:1001200099F08230A1F008958730A9F08830B9F0B5
:100130008430D1F4809180008F7D03C08091800055
:100140008F7780938000089584B58F7702C084B53F
:100150008F7D84BD08958091B0008F7703C080911A
:10016000B0008F7D8093B0000895CF93DF93282F48
:1001700030E0F901E255FF4F8491F901E656FF4F57
:10018000D491F901EA57FF4FC491CC2391F081112A
:100190000E948C00EC2FF0E0EE0FFF1FE458FF4FA1
:1001A000A591B491EC91ED2381E090E021F480E001
:1001B00002C080E090E0DF91CF9108951F93CF932C
:1001C000DF93282F30E0F901E255FF4F8491F901C8
:1001D000E656FF4FD491F901EA57FF4FC491CC2363
:1001E000C9F0162F81110E948C00EC2FF0E0EE0F69
:1001F000FF1FEE58FF4FA591B4918FB7F8941111DE
:1002000005C09C91ED2FE095E92302C0EC91ED2B08
:10021000EC938FBFDF91CF911F910895CF93DF9320
:1002200090E0FC01E656FF4F2491FC01EA57FF4F96
:100230008491882361F190E0880F991FFC01E859AF
:10024000FF4FC591D491FC01EE58FF4FA591B49199
:10025000611109C09FB7F894888120958223888313
:10026000EC912E230BC0623061F49FB7F894388173
:10027000822F809583238883EC912E2B2C939FBF14
:1002800006C08FB7F894E8812E2B28838FBFDF91AB
:10029000CF9108951F93CF93DF93182FEB0161E067
:1002A0000E940E01209711F460E004C0CF3FD105F9
:1002B00039F461E0812FDF91CF911F910C94DE0022
:1002C000E12FF0E0E255FF4FE491E330F9F048F41C
:1002D000E130B9F0E230A1F584B5806284BDC8BDDB
:1002E00034C0E730E9F0E83019F1E43049F58091A5
:1002F0008000806280938000D0938B00C0938A003E
:1003000024C084B5806884BDC7BD1FC080918000B3
:10031000806880938000D0938900C093880015C0C6
:100320008091B00080688093B000C093B3000DC08E
:100330008091B00080628093B000C093B40005C08B
:10034000C038D1050CF0B5CFAFCFDF91CF911F9161
:100350000895CF92DF92EF92FF920F931F93CF9366
:10036000DF936C017A018B01C0E0D0E0CE15DF0590
:1003700089F0D8016D918D01D601ED91FC9101902C
:10038000F081E02DC6010995892B11F47E0102C090
:100390002196ECCFC701DF91CF911F910F91FF9074
:1003A000EF90DF90CF900895FC01918D828D98178A
:1003B00061F0828DDF01A80FB11D5D968C91928D49
:1003C0009F5F9F73928F90E008958FEF9FEF089546
:1003D000FC01918D828D981731F0828DE80FF11D0F
:1003E000858D90E008958FEF9FEF0895FC01918D2A
:1003F000228D892F90E0805C9F4F821B91098F7323
:100400009927089581E291E00E94F60121E0892B6D
:1004100009F420E0822F0895FC01848DDF01A80FEC
:10042000B11DA35ABF4F2C91848D90E001968F731C
:100430009927848FA689B7892C93A089B1898C913B
:1004400080648C93938D848D981306C00288F38901
:10045000E02D80818F7D80830895EF92FF920F932E
:100460001F93CF93DF93EC0181E0888F9B8D8C8D60
:10047000981305C0E889F989808185FD24C0F62E8E
:100480000B8D10E00F5F1F4F0F731127E02E8C8D27
:10049000E8120CC00FB607FCFACFE889F989808111
:1004A00085FFF5CFCE010E940C02F1CF8B8DFE01AE
:1004B000E80FF11DE35AFF4FF0820B8FEA89FB89A9
:1004C0008081806207C0EE89FF896083E889F989AD
:1004D00080818064808381E090E0DF91CF911F91E3
:1004E0000F91FF90EF900895CF93DF93EC01888DEB
:1004F0008823C9F0EA89FB89808185FD05C0A88928
:10050000B9898C9186FD0FC00FB607FCF5CF8081AD
:1005100085FFF2CFA889B9898C9185FFEDCFCE01F7
:100520000E940C02E7CFDF91CF91089580E090E028
:10053000892B29F00E94020281110C940000089579
:10054000009769F0FC0101900020E9F73197AF01B5
:10055000481B590BBC0181E291E00C94A90180E099
:1005600090E00895CF92DF92FF920F931F93CF9365
:10057000DF9300D0CDB7DEB7F82E062F142F8CE412
:10058000C82E83E0D82EF60182815A8399830E9477
:100590004A016F2D9981792FF60180810E944A01CD
:1005A000612F5A81752FF60184810E944A016F2DB7
:1005B00081E291E00E942D02602F81E291E00E9491
:1005C0002D02612F81E291E00E942D0284E191E0F1
:1005D0000F900F90DF91CF911F910F91FF90DF90BF
:1005E000CF900C94A002FC014481558162817381FB
:1005F000808191810C94B2024F925F926F927F92B0
:100600008F929F92AF92BF92CF92DF92EF92FF9222
:100610000F931F93CF93DF93CDB7DEB7A1970FB69C
:10062000F894DEBF0FBECDBF5C014C01880C991C55
:10063000F401E05DFC4F80810E94B50085010B5FF5
:100640001F4F892B51F4F801EE0FFF1FE05DFC4FA7
:1006500080819181019691838083F801EE0FFF1FC5
:10066000E05DFC4F80819181853691050CF479C065
:1006700065010B2C000CEE08FF08F7FE2BC0E09183
:100680002101F09122010190F081E02D6DE281E2E3
:1006900091E0099522273327A9012C193D094E091C
:1006A0005F0919A2CE0181967C016AE0462E512C89
:1006B000612C712CCA01B901A30192010E94530758
:1006C000605DF70162937F012115310541055105F8
:1006D00089F71AC0A701960119A2CE0181967C0163
:1006E0009AE0492E512C612C712CCA01B901A30149
:1006F00092010E945307605DF70162937F0121150B
:1007000031054105510589F7C7010E94A00284E126
:1007100091E00E94A002F2E0AF16B104A1F03CF417
:10072000A114B10469F0AA94AB28A9F01AC0E3E0BF
:10073000AE16B10459F0F4E0AF16B10461F011C087
:100740008CE193E005C088E093E002C082E193E091
:100750000E94F30206C09091520381E089278093A2
:100760005203000F111F005D1C4FF8018081918121
:100770001816190674F4F401E05DFC4F80810E94A4
:10078000B500892B31F0F801808191810197918327
:100790008083A1960FB6F894DEBF0FBECDBFDF9168
:1007A000CF911F910F91FF90EF90DF90CF90BF906E
:1007B000AF909F908F907F906F905F904F90089533
:1007C0000E944E071F920F920FB60F9211242F9383
:1007D0003F938F939F93AF93BF9380911D0190910F
:1007E0001E01A0911F01B091200130911C0123E056
:1007F000230F2D3720F40196A11DB11D05C026E859
:10080000230F0296A11DB11D20931C0180931D0191
:1008100090931E01A0931F01B093200180911801B5
:1008200090911901A0911A01B0911B010196A11D8F
:10083000B11D8093180190931901A0931A01B093F0
:100840001B01BF91AF919F918F913F912F910F907D
:100850000FBE0F901F9018951F920F920FB60F9218
:1008600011242F933F934F935F936F937F938F93B5
:100870009F93AF93BF93EF93FF9381E291E00E9428
:100880000C02FF91EF91BF91AF919F918F917F915A
:100890006F915F914F913F912F910F900FBE0F90ED
:1008A0001F9018951F920F920FB60F9211242F933D
:1008B0008F939F93EF93FF93E0913101F091320179
:1008C0008081E0913701F091380182FD12C0908162
:1008D00080913A018F5F8F7320913B01821751F015
:1008E000E0913A01F0E0EF5DFE4F958F80933A0181
:1008F00001C08081FF91EF919F918F912F910F9077
:100900000FBE0F901F901895CF93DF93E1E2F1E0B7
:100910001382128288EE93E0A0E0B0E08483958396
:10092000A683B78388E091E09183808385EC90E093
:100930009587848784EC90E09787868760EC70E0E9
:10094000718B608B81EC90E0938B828B82EC90E0DA
:10095000958B848B86EC90E0978B868B118E128E14
:10096000138E148EE6E2F3E080E090E0A0E8BFE3AF
:1009700086839783A087B1871182108213821282A7
:1009800015821482ECE1F3E086839783A087B18718
:100990002FEF30E03183208313821282158214827C
:1009A000E2E1F3E086839783A087B187118210820A
:1009B0003383228315821482E8E0F3E086839783F1
:1009C000A087B1871182108213821282358324831B
:1009D000EEEFF2E086839783A087B18745E950E088
:1009E000518340834BE150E0538342834AEB50E014
:1009F00055834483E4EFF2E086839783A087B18731
:100A000031832083138212824FE750E05583448361
:100A1000EAEEF2E086839783A087B18743E350E054
:100A200051834083C8ECD0E0D383C28335832483D1
:100A3000E0EEF2E086839783A087B187318320833D
:100A40005383428355834483E6EDF2E086839783A4
:100A5000A087B187318320833383228346E650E029
:100A600055834483ECECF2E086839783A087B187BB
:100A7000518340833383228355834483E2ECF2E045
:100A800086839783A087B1875183408333832283F2
:100A900035832483E8EBF2E086839783A087B187D0
:100AA000518340835383428335832483EEEAF2E00B
:100AB00086839783A087B187718360837383628302
:100AC000758364838AE0ECE1F3E0A2E7B2E0019091
:100AD0000D928A95E1F78AE0E2E1F3E0ACE7B2E05B
:100AE00001900D928A95E1F78AE0E8E0F3E0A6E84C
:100AF000B2E001900D928A95E1F78AE0EEEFF2E024
:100B0000A0E9B2E001900D928A95E1F78AE0E4EF66
:100B1000F2E0AAE9B2E001900D928A95E1F78AE04D
:100B2000EAEEF2E0A4EAB2E001900D928A95E1F7D4
:100B30008AE0E0EEF2E0A6E3B2E001900D928A9541
:100B4000E1F78AE0E6EDF2E0A0E4B2E001900D9278
:100B50008A95E1F78AE0ECECF2E0AAE4B2E00190D9
:100B60000D928A95E1F78AE0E2ECF2E0A4E5B2E0CA
:100B700001900D928A95E1F78AE0E8EBF2E0AEE5AC
:100B8000B2E001900D928A95E1F78AE0EEEAF2E098
:100B9000A8E6B2E001900D928A95E1F78AE0E2E1E1
:100BA000F3E0AEEBB1E001900D928A95E1F78AE0B7
:100BB000ECECF2E0A8ECB1E001900D928A95E1F73F
:100BC0008AE0EEEAF2E0A2EDB1E001900D928A95A2
:100BD000E1F78AE0E6E2F3E0ACEDB1E001900D92DE
:100BE0008A95E1F78AE0ECE1F3E0A6EEB1E001904E
:100BF0000D928A95E1F78AE0E0EEF2E0A0EFB1E035
:100C000001900D928A95E1F78AE0EEEFF2E0AAEF0B
:100C1000B1E001900D928A95E1F78AE0E6E2F3E017
:100C2000A4E0B2E001900D928A95E1F78AE0E8E055
:100C3000F3E0AEE0B2E001900D928A95E1F78AE030
:100C4000E8EBF2E0A8E1B2E001900D928A95E1F7BD
:100C50008AE0EAEEF2E0A2E2B2E001900D928A951B
:100C6000E1F78AE0E6E2F3E0ACE2B2E001900D9257
:100C70008A95E1F7ECE4F3E08AE090E091838083E9
:100C800089E090E0938382838BE090E09583848376
:100C900081E086838AE0EAE3F3E0DF011D928A9532
:100CA000E9F7E0E3F3E087E090E09183808386E07A
:100CB00090E09383828385E090E09583848384E051
:100CC00090E09783868383E090E091878087158A00
:100CD000148A178A168ADF91CF910895789484B583
:100CE000826084BD84B5816084BD85B5826085BD28
:100CF00085B5816085BD80916E00816080936E00B6
:100D000010928100809181008260809381008091A7
:100D10008100816080938100809180008160809358
:100D200080008091B10084608093B1008091B00018
:100D300081608093B00080917A00846080937A0013
:100D400080917A00826080937A0080917A0081603D
:100D500080937A0080917A00806880937A00109264
:100D6000C10060E0809130030E940E0160E080913C
:100D700032030E940E0160E0809134030E940E0154
:100D800060E0809136030E940E0160E0809138039C
:100D90000E940E0161E080914C030E940E0161E00F
:100DA00080914E030E940E0161E0809150030E94E9
:100DB0000E0161E08DE00E940E01E0913101F091A1
:100DC000320182E08083E0912D01F0912E011082AA
:100DD000E0912F01F09130018FEC80831092390166
:100DE000E0913501F091360186E08083E091330196
:100DF000F0913401808180618083E0913301F09132
:100E00003401808188608083E0913301F091340166
:100E1000808180688083E0913301F091340180818A
:100E20008F7D808344E150E064E170E084E190E0F4
:100E30000E94B202C0E480915203811107C084E095
:100E400090E00E94FC0286E293E01DC0C0937C000B
:100E500080917A00806480937A0080917A0086FD88
:100E6000FCCF809178002091790090E0922B843F14
:100E700091401CF48CE193E006C081E090E00E9478
:100E8000FC0282E193E00E94F3020E949602D3CF1B
:100E9000EE0FFF1F0590F491E02D099481E090E0A2
:100EA000F8940C947507A1E21A2EAA1BBB1BFD0136
:100EB0000DC0AA1FBB1FEE1FFF1FA217B307E40739
:100EC000F50720F0A21BB30BE40BF50B661F771F91
:100ED000881F991F1A9469F7609570958095909571
:0E0EE0009B01AC01BD01CF010895F894FFCF36
:100EEE0001000000000000002D02A901F601D4014E
:080EFE00E80174020D0A000076
:00000001FF
