:100000000C9462000C948A000C948A000C948A0070
:100010000C948A000C948A000C948A000C948A0038
:100020000C948A000C948A000C948A000C948A0028
:100030000C948A000C948A000C948A000C948A0018
:100040000C94DA020C948A000C944A030C94240356
:100050000C948A000C948A000C948A000C948A00F8
:100060000C948A000C948A000000000023002600F3
:10007000290000000000240027002A0000000000E2
:10008000250028002B0004040404040404040202D4
:100090000202020203030303030301020408102007
:1000A0004080010204081020010204081020000012
:1000B0000008000201000003040700000000000027
:1000C00000007C0311241FBECFEFD4E0DEBFCDBF04
:1000D00023E0A8E1B1E001C01D92AB34B207E1F723
:1000E00011E0A0E0B1E0E8E0FEE002C005900D9272
:1000F000A831B107D9F710E0C2E6D0E004C02197DB
:10010000FE010E94A706C136D107C9F70E94560515
:100110000C9402070C940000833081F028F48130A5
:1001200099F08230A1F008958730A9F08830B9F0B5
:100130008430D1F4809180008F7D03C08091800055
:100140008F7780938000089584B58F7702C084B53F
:100150008F7D84BD08958091B0008F7703C080911A
:10016000B0008F7D8093B00008951F93CF93DF93ED
:10017000282F30E0F901E255FF4F8491F901E6564E
:10018000FF4FD491F901EA57FF4FC491CC23C9F036
:10019000162F81110E948C00EC2FF0E0EE0FFF1F54
:1001A000E458FF4FA591B4918FB7F894111105C091
:1001B0009C91ED2FE095E92302C0EC91ED2BEC939F
:1001C0008FBFDF91CF911F910895CF93DF9390E080
:1001D000FC01E656FF4F2491FC01EA57FF4F849142
:1001E000882361F190E0880F991FFC01EE58FF4FC2
:1001F000C591D491FC01E458FF4FA591B4916111D0
:1002000009C09FB7F8948881209582238883EC9158
:100210002E230BC0623061F49FB7F8943881822F8F
:10022000809583238883EC912E2B2C939FBF06C04F
:100230008FB7F894E8812E2B28838FBFDF91CF9161
:1002400008951F93CF93DF93182FEB0161E00E9475
:10025000E500209711F460E004C0CF3FD10539F4E8
:1002600061E0812FDF91CF911F910C94B500E12FB8
:10027000F0E0E255FF4FE491E330F9F048F4E1306B
:10028000B9F0E230A1F584B5806284BDC8BD34C048
:10029000E730E9F0E83019F1E43049F58091800069
:1002A000806280938000D0938B00C0938A0024C02A
:1002B00084B5806884BDC7BD1FC080918000806800
:1002C00080938000D0938900C093880015C08091EE
:1002D000B00080688093B000C093B3000DC08091DF
:1002E000B00080628093B000C093B40005C0C038F5
:1002F000D1050CF0B5CFAFCFDF91CF911F9108950D
:100300008E3008F08E508770806480937C008091DE
:100310007A00806480937A0080917A0086FDFCCF19
:10032000809178002091790090E0922B0895CF92EF
:10033000DF92EF92FF920F931F93CF93DF936C01A5
:100340007A018B01C0E0D0E0CE15DF0589F0D8013D
:100350006D918D01D601ED91FC910190F081E02D20
:10036000C6010995892B11F47E0102C02196ECCFBC
:10037000C701DF91CF911F910F91FF90EF90DF9018
:10038000CF900895FC01918D828D981761F0828D38
:10039000DF01A80FB11D5D968C91928D9F5F9F73B9
:1003A000928F90E008958FEF9FEF0895FC01918D5B
:1003B000828D981731F0828DE80FF11D858D90E0C8
:1003C00008958FEF9FEF0895FC01918D228D892F65
:1003D00090E0805C9F4F821B91098F73992708954D
:1003E00083E992E00E94E40121E0892B09F420E0F6
:1003F000822F0895FC01848DDF01A80FB11DA35A3F
:10040000BF4F2C91848D90E001968F739927848F34
:10041000A689B7892C93A089B1898C9180648C932B
:10042000938D848D981306C00288F389E02D808116
:100430008F7D80830895EF92FF920F931F93CF9348
:10044000DF93EC0181E0888F9B8D8C8D981305C024
:10045000E889F989808185FD24C0F62E0B8D10E096
:100460000F5F1F4F0F731127E02E8C8DE8120CC009
:100470000FB607FCFACFE889F989808185FFF5CFAF
:10048000CE010E94FA01F1CF8B8DFE01E80FF11D24
:10049000E35AFF4FF0820B8FEA89FB8980818062EB
:1004A00007C0EE89FF896083E889F98980818064CB
:1004B000808381E090E0DF91CF911F910F91FF90B9
:1004C000EF900895FF920F931F93CF93DF9300D087
:1004D000CDB7DEB7182F062FF42E80914A0388235C
:1004E000A9F0809146035A8399830E942101612FCC
:1004F0009981792F809144030E9421016F2D5A81A7
:10050000752F809148030E94210108C040E050E00F
:1005100060E070E080E090E00E946202612F83E979
:1005200092E00E941B02602F83E992E00E941B026E
:100530006F2D83E992E00E941B0242E050E064E1EB
:1005400071E083E992E00F900F90DF91CF911F91BE
:100550000F91FF900C949701CF93DF93EC01888D5E
:100560008823C9F0EA89FB89808185FD05C0A889B7
:10057000B9898C9186FD0FC00FB607FCF5CF80813D
:1005800085FFF2CFA889B9898C9185FFEDCFCE0187
:100590000E94FA01E7CFDF91CF91089580E090E0CB
:1005A000892B29F00E94F00181110C94000008951C
:1005B0000E94AD061F920F920FB60F9211242F9337
:1005C0003F938F939F93AF93BF9380911D01909121
:1005D0001E01A0911F01B091200130911C0123E068
:1005E000230F2D3720F40196A11DB11D05C026E86B
:1005F000230F0296A11DB11D20931C0180931D01A4
:1006000090931E01A0931F01B093200180911801C7
:1006100090911901A0911A01B0911B010196A11DA1
:10062000B11D8093180190931901A0931A01B09302
:100630001B01BF91AF919F918F913F912F910F908F
:100640000FBE0F901F9018951F920F920FB60F922A
:1006500011242F933F934F935F936F937F938F93C7
:100660009F93AF93BF93EF93FF9383E992E00E9430
:10067000FA01FF91EF91BF91AF919F918F917F917F
:100680006F915F914F913F912F910F900FBE0F90FF
:100690001F9018951F920F920FB60F9211242F934F
:1006A0008F939F93EF93FF93E091A302F091A402A5
:1006B0008081E091A902F091AA0282FD12C090818E
:1006C0008091AC028F5F8F732091AD02821751F041
:1006D000E091AC02F0E0ED56FD4F958F8093AC02B7
:1006E00001C08081FF91EF919F918F912F910F9089
:1006F0000FBE0F901F901895E9E8F2E080E090E0BF
:10070000A0E8BFE386839783A087B1871182108218
:100710001382128215821482EFE7F2E086839783B8
:10072000A087B1872FEF30E03183208313821282BC
:1007300015821482E5E7F2E086839783A087B1876C
:10074000118210823383228315821482EBE6F2E059
:1007500086839783A087B1871182108213821282C9
:1007600035832483E1E6F2E086839783A087B1870F
:1007700045E950E0518340834BE150E0538342838D
:100780004AEB50E055834483E7E5F2E086839783A4
:10079000A087B18731832083138212824FE750E014
:1007A00055834483EDE4F2E086839783A087B18785
:1007B00043E350E05183408368EC70E073836283CD
:1007C00035832483E3E4F2E086839783A087B187AF
:1007D000318320835383428355834483E9E3F2E0EA
:1007E00086839783A087B1873183208333832283D5
:1007F00046E650E055834483EFE2F2E08683978338
:10080000A087B187518340833383228355834483F8
:10081000E5E2F2E086839783A087B1875183408326
:100820003383228335832483EBE1F2E0868397834D
:10083000A087B187518340835383428335832483C8
:10084000E1E1F2E086839783A087B18780EC90E0B6
:100850009183808393838283958384832AE0EFE767
:10086000F2E0A5EDB1E001900D922A95E1F72AE0C2
:10087000E5E7F2E0AFEDB1E001900D922A95E1F7E6
:100880002AE0EBE6F2E0A9EEB1E001900D922A95A4
:10089000E1F72AE0E1E6F2E0A3EFB1E001900D928A
:1008A0002A95E1F72AE0E7E5F2E0ADEFB1E001904B
:1008B0000D922A95E1F72AE0EDE4F2E0A7E0B2E03C
:1008C00001900D922A95E1F72AE0E3E4F2E0A9E92C
:1008D000B1E001900D922A95E1F72AE0E9E3F2E018
:1008E000A3EAB1E001900D922A95E1F72AE0EFE248
:1008F000F2E0ADEAB1E001900D922A95E1F72AE02D
:10090000E5E2F2E0A7EBB1E001900D922A95E1F764
:100910002AE0EBE1F2E0A1ECB1E001900D922A9522
:10092000E1F72AE0E1E1F2E0ABECB1E001900D92F9
:100930002A95E1F72AE0E5E7F2E0A1E2B1E00190D3
:100940000D922A95E1F72AE0EFE2F2E0ABE2B1E0A6
:1009500001900D922A95E1F72AE0E1E1F2E0A5E3AA
:10096000B1E001900D922A95E1F72AE0E9E8F2E082
:10097000AFE3B1E001900D922A95E1F72AE0EFE7AD
:10098000F2E0A9E4B1E001900D922A95E1F72AE0A6
:10099000E3E4F2E0A3E5B1E001900D922A95E1F7DE
:1009A0002AE0E1E6F2E0ADE5B1E001900D922A9592
:1009B000E1F72AE0E9E8F2E0A7E6B1E001900D9264
:1009C0002A95E1F72AE0EBE6F2E0A1E7B1E0019039
:1009D0000D922A95E1F72AE0EBE1F2E0ABE7B1E016
:1009E00001900D922A95E1F72AE0EDE4F2E0A5E806
:1009F000B1E001900D922A95E1F72AE0E9E8F2E0F2
:100A0000AFE8B1E001900D922A95E1F7E3E9F2E059
:100A10001382128248EE53E060E070E04483558315
:100A20006683778328E031E03183208325EC30E052
:100A30003587248724EC30E037872687918B808B9D
:100A400081EC90E0938B828B82EC90E0958B848B91
:100A500086EC90E0978B868B118E128E138E148EFF
:100A6000E4E4F3E08AE090E09183808389E090E021
:100A7000938382838BE090E09583848381E08683F7
:100A80008AE0EAE3F3E0DF011D928A95E9F7E0E30B
:100A9000F3E087E090E09183808386E090E09383A9
:100AA000828385E090E0958384830895789484B56B
:100AB000826084BD84B5816084BD85B5826085BD5A
:100AC00085B5816085BD80916E00816080936E00E8
:100AD00010928100809181008260809381008091DA
:100AE000810081608093810080918000816080938B
:100AF00080008091B10084608093B1008091B0004B
:100B000081608093B00080917A00846080937A0045
:100B100080917A00826080937A0080917A0081606F
:100B200080937A0080917A00806880937A00109296
:100B3000C10060E0809130030E94E50060E0809198
:100B400032030E94E50060E0809134030E94E500DA
:100B500061E0809144030E94E50061E080914603DA
:100B60000E94E50061E0809148030E94E50061E099
:100B70008DE00E94E500E091A302F091A40282E0E2
:100B80008083E0919F02F091A0021082E091A10287
:100B9000F091A2028FEC80831092AB02E091A70249
:100BA000F091A80286E08083E091A502F091A60270
:100BB000808180618083E091A502F091A60280810E
:100BC00088608083E091A502F091A6028081806810
:100BD0008083E091A502F091A60280818F7D8083C1
:100BE00040E050E060E070E08FEF90E00E94620231
:100BF00005EB10E041EAE42E40E0F42E5DE8C52E5E
:100C000050E0D52E88248A9463E0962EA12CB12C36
:100C10007AE0272EE8E23E2EF8018491F701D49184
:100C2000F601C491CC2309F44AC081110E948C00C2
:100C3000EC2FF0E0EE0FFF1FE859FF4FA591B491A4
:100C40008C91D823E1F18FE00E94800123E030E015
:100C5000DC010E94A006A50194010E94B2062901B0
:100C60003A0180E10E948001092E000CAA0BBB0B07
:100C7000BC01CD0122E0660F771F881F991F2A95BE
:100C8000D1F7A50194010E94B206229EB001239ED5
:100C9000700D1124349CC001359C900D1124860FD9
:100CA000971FFC01EF5DFE4F448155816281738186
:100CB000808191810E9462020E94CE02ADCF8FE0BE
:100CC0000E948001EC0180E10E9480012FEF30E062
:100CD000DC010E94A006A50194010E94B206DA017F
:100CE000C901C038D1051CF440E050E027C09E0186
:100CF000205831092038310518F440E050E01BC07D
:100D00009E013A952F3F310509F020F440E050E074
:100D1000BC0108C09E0132502038310530F4AC01CE
:100D200060E070E080E090E0C5CFC058D240AC01F8
:100D3000C038D10518F460E070E0BCCFBC01BACF78
:100D40000E94F306B7FF0895821B930B0895EE0FE0
:100D5000FF1F0590F491E02D099481E090E0F89454
:100D60000C940207052E97FB1EF400940E94C906FE
:100D700057FD07D00E94D10607FC03D04EF40C9417
:100D8000C90650954095309521953F4F4F4F5F4F85
:100D9000089590958095709561957F4F8F4F9F4FE7
:100DA0000895A1E21A2EAA1BBB1BFD010DC0AA1FAC
:100DB000BB1FEE1FFF1FA217B307E407F50720F0C4
:100DC000A21BB30BE40BF50B661F771F881F991F3F
:100DD0001A9469F760957095809590959B01AC0188
:100DE000BD01CF010895A29FB001B39FC001A39F91
:100DF000700D811D1124911DB29F700D811D112454
:080E0000911D0895F894FFCF45
:100E080001000000000000001B029701E401C2017C
:080E1800D601AC020D0A000036
:00000001FF
