:100000000C9462000C948A000C948A000C948A0070
:100010000C948A000C948A000C948A000C948A0038
:100020000C948A000C948A000C948A000C948A0028
:100030000C948A000C948A000C948A000C948A0018
:100040000C9481040C948A000C94F1040C94CB045D
:100050000C948A000C948A000C948A000C948A00F8
:100060000C948A000C948A000000000024002700F1
:100070002A0000000000250028002B0000000000DE
:1000800023002600290004040404040404040202DA
:100090000202020203030303030301020408102007
:1000A0004080010204081020010204081020000012
:1000B0000008000201000003040700000000000027
:1000C0000000230511241FBECFEFD4E0DEBFCDBF5B
:1000D00023E0A8E1B1E001C01D92A33DB207E1F722
:1000E00011E0A0E0B1E0EAEFF2E102C005900D926C
:1000F000A831B107D9F710E0C2E6D0E004C02197DB
:10010000FE010E942009C136D107C9F70E94A50748
:100110000C947B090C940000833081F028F481302A
:1001200099F08230A1F008958730A9F08830B9F0B5
:100130008430D1F4809180008F7D03C08091800055
:100140008F7780938000089584B58F7702C084B53F
:100150008F7D84BD08958091B0008F7703C080911A
:10016000B0008F7D8093B0000895CF93DF93282F48
:1001700030E0F901E255FF4F8491F901E656FF4F57
:10018000D491F901EA57FF4FC491CC2391F081112A
:100190000E948C00EC2FF0E0EE0FFF1FE458FF4FA1
:1001A000A591B491EC91ED2381E090E021F480E001
:1001B00002C080E090E0DF91CF910895EF92FF922E
:1001C0000F931F93CF93DF938C017C01EE0CFF1CE8
:1001D000F701E855FC4F80810E94B500E8012596A3
:1001E000892B51F4FE01EE0FFF1FE855FC4F808173
:1001F0009181019691838083FE01EE0FFF1FE855E8
:10020000FC4F80819181853691050CF471C00230DC
:100210001105A9F124F40130110549F069C003303A
:100220001105C1F10430110509F43FC061C080918E
:10023000BC039091BD0301969093BD038093BC03D2
:100240001092B5031092B4034091BE035091BF03C6
:100250002091C2033091C3032417350724F4109270
:10026000BF031092BE032091C0033091C103281731
:100270003907F4F51092BD031092BC0339C0909178
:10028000CA0381E089278093CA031092B7031092B2
:10029000B6032EC09091CA0381E089278093CA03D8
:1002A0001092B9031092B80323C08091BE039091BD
:1002B000BF0301969093BF038093BE031092BB03CC
:1002C0001092BA032091C2033091C3032817390753
:1002D00024F41092BF031092BE032091BC0330910E
:1002E000BD038091C0039091C1038217930714F25C
:1002F000CC0FDD1FC855DC4F88819981181619066F
:100300006CF4F701E855FC4F80810E94B500892B01
:1003100029F088819981019799838883DF91CF9112
:100320001F910F91FF90EF9008951F93CF93DF934C
:10033000282F30E0F901E255FF4F8491F901E6568C
:10034000FF4FD491F901EA57FF4FC491CC23C9F074
:10035000162F81110E948C00EC2FF0E0EE0FFF1F92
:10036000EE58FF4FA591B4918FB7F894111105C0C5
:100370009C91ED2FE095E92302C0EC91ED2BEC93DD
:100380008FBFDF91CF911F910895CF93DF9390E0BE
:10039000FC01E656FF4F2491FC01EA57FF4F849180
:1003A000882361F190E0880F991FFC01E859FF4F05
:1003B000C591D491FC01EE58FF4FA591B491611104
:1003C00009C09FB7F8948881209582238883EC9197
:1003D0002E230BC0623061F49FB7F8943881822FCE
:1003E000809583238883EC912E2B2C939FBF06C08E
:1003F0008FB7F894E8812E2B28838FBFDF91CF91A0
:1004000008951F93CF93DF93182FEB0161E00E94B3
:10041000C501209711F460E004C0CF3FD10539F445
:1004200061E0812FDF91CF911F910C949501E12F15
:10043000F0E0E255FF4FE491E330F9F048F4E130A9
:10044000B9F0E230A1F584B5806284BDC8BD34C086
:10045000E730E9F0E83019F1E43049F580918000A7
:10046000806280938000D0938B00C0938A0024C068
:1004700084B5806884BDC7BD1FC08091800080683E
:1004800080938000D0938900C093880015C080912C
:10049000B00080688093B000C093B3000DC080911D
:1004A000B00080628093B000C093B40005C0C03833
:1004B000D1050CF0B5CFAFCFDF91CF911F9108954B
:1004C0008E3008F08E508770806480937C0080911D
:1004D0007A00806480937A0080917A0086FDFCCF58
:1004E000809178002091790090E0922B0895CF922E
:1004F000DF92EF92FF920F931F93CF93DF936C01E4
:100500007A018B01C0E0D0E0CE15DF0589F0D8017B
:100510006D918D01D601ED91FC910190F081E02D5E
:10052000C6010995892B11F47E0102C02196ECCFFA
:10053000C701DF91CF911F910F91FF90EF90DF9056
:10054000CF900895FC01918D828D981761F0828D76
:10055000DF01A80FB11D5D968C91928D9F5F9F73F7
:10056000928F90E008958FEF9FEF0895FC01918D99
:10057000828D981731F0828DE80FF11D858D90E006
:1005800008958FEF9FEF0895FC01918D228D892FA3
:1005900090E0805C9F4F821B91098F73992708958B
:1005A00081E291E00E94C40221E0892B09F420E05D
:1005B000822F0895FC01848DDF01A80FB11DA35A7D
:1005C000BF4F2C91848D90E001968F739927848F73
:1005D000A689B7892C93A089B1898C9180648C936A
:1005E000938D848D981306C00288F389E02D808155
:1005F0008F7D80830895EF92FF920F931F93CF9387
:10060000DF93EC0181E0888F9B8D8C8D981305C062
:10061000E889F989808185FD24C0F62E0B8D10E0D4
:100620000F5F1F4F0F731127E02E8C8DE8120CC047
:100630000FB607FCFACFE889F989808185FFF5CFED
:10064000CE010E94DA02F1CF8B8DFE01E80FF11D81
:10065000E35AFF4FF0820B8FEA89FB898081806229
:1006600007C0EE89FF896083E889F9898081806409
:10067000808381E090E0DF91CF911F910F91FF90F7
:10068000EF900895CF92DF92FF920F931F93CF9335
:10069000DF9300D0CDB7DEB7F82E062F142F84ECF1
:1006A000C82E83E0D82EF60182815A8399830E9456
:1006B00001026F2D9981792FF60180810E9401023C
:1006C000612F5A81752FF60184810E9401026F2DDE
:1006D00081E291E00E94FB02602F81E291E00E94A2
:1006E000FB02612F81E291E00E94FB0242E050E0B8
:1006F00064E171E081E291E00F900F90DF91CF9182
:100700001F910F91FF90DF90CF900C947702809112
:10071000D1039091D20301969093D2038093D10399
:100720008F3F91057CF48091CB039091CC0301968F
:100730009093CC038093CB0340E050E060E070E006
:100740000E9442038091D1039091D2039A958E3FEB
:10075000910580F44091CF035091D0034F5F5F4FDC
:100760005093D0034093CF0360E070E08FEF90E0B0
:100770000E9442038091D1039091D2038F5F9140F8
:100780008E3F910580F46091CD037091CE036F5F31
:100790007F4F7093CE036093CD034FEF50E08FEF08
:1007A00090E00E9442038091D1039091D2038E5F2A
:1007B00092408E3F9105B8F46091CD037091CE03C5
:1007C000615071097093CE036093CD038091CB0388
:1007D0009091CC0301979093CC038093CB034FEF80
:1007E00050E00E9442038091D1039091D2038D5F2B
:1007F00093408E3F910580F46091CD037091CE03BC
:100800006F5F7F4F7093CE036093CD034FEF50E047
:1008100080E090E00E9442038091D1039091D20346
:100820008C5F94408E3F910580F44091CF035091AE
:10083000D003415051095093D0034093CF036FEF41
:1008400070E080E090E00E9442038091D10390919B
:10085000D2038B5F95408E3F910580F46091CD036C
:100860007091CE03615071097093CE036093CD03F4
:1008700040E050E080E090E00E9442038091D1038C
:100880009091D2038A3F964024F01092D2031092A6
:10089000D1030895FC014481558162817381808177
:1008A00091810C944203CF93DF93EC01888D8823D0
:1008B000C9F0EA89FB89808185FD05C0A889B989CD
:1008C0008C9186FD0FC00FB607FCF5CF808185FFA8
:1008D000F2CFA889B9898C9185FFEDCFCE010E9416
:1008E000DA02E7CFDF91CF91089580E090E0892B85
:1008F00029F00E94D00281110C94000008950E94FA
:1009000026091F920F920FB60F9211242F933F9337
:100910008F939F93AF93BF9380911D0190911E0180
:10092000A0911F01B091200130911C0123E0230F01
:100930002D3720F40196A11DB11D05C026E8230F17
:100940000296A11DB11D20931C0180931D0190935F
:100950001E01A0931F01B093200180911801909176
:100960001901A0911A01B0911B010196A11DB11DA1
:100970008093180190931901A0931A01B0931B0161
:10098000BF91AF919F918F913F912F910F900FBE8B
:100990000F901F9018951F920F920FB60F9211246F
:1009A0002F933F934F935F936F937F938F939F9377
:1009B000AF93BF93EF93FF9381E291E00E94DA023D
:1009C000FF91EF91BF91AF919F918F917F916F9127
:1009D0005F914F913F912F910F900FBE0F901F90FD
:1009E00018951F920F920FB60F9211242F938F9389
:1009F0009F93EF93FF93E0913101F0913201808159
:100A0000E0913701F091380182FD12C09081809110
:100A10003A018F5F8F7320913B01821751F0E09173
:100A20003A01F0E0EF5DFE4F958F80933A0101C0EF
:100A30008081FF91EF919F918F912F910F900FBE29
:100A40000F901F901895CF93DF93E1E2F1E01382AE
:100A5000128288EE93E0A0E0B0E084839583A683C1
:100A6000B78388E091E09183808385EC90E095875F
:100A7000848784EC90E097878687C0ECD0E0D18BA8
:100A8000C08B81EC90E0938B828B82EC90E0958B15
:100A9000848B86EC90E0978B868B118E128E138E52
:100AA000148EEEE9F3E080E090E0A0E8BFE38683F7
:100AB0009783A087B18711821082138212821582D8
:100AC0001482E4E9F3E086839783A087B1872FEF50
:100AD00030E0318320831382128215821482EAE887
:100AE000F3E086839783A087B187118210823383D6
:100AF000228315821482E0E8F3E086839783A0873F
:100B0000B187118210821382128235832483E6E733
:100B1000F3E086839783A087B18745E950E051834E
:100B200040834BE150E0538342834AEB50E05583CE
:100B30004483ECE6F3E086839783A087B187318313
:100B40002083138212824FE750E055834483E2E60C
:100B5000F3E086839783A087B18763E370E07183B6
:100B6000608348EC50E05383428335832483E8E577
:100B7000F3E086839783A087B187318320837383D3
:100B8000628375836483EEE4F3E086839783A087B2
:100B9000B187318320833383228346E650E0558337
:100BA0004483E4E4F3E086839783A087B18751838D
:100BB00040833383228355834483EAE3F3E08683CF
:100BC0009783A087B1875183408333832283358302
:100BD0002483E0E3F3E086839783A087B187518382
:100BE00040835383428335832483E6E2F3E08683A4
:100BF0009783A087B187D183C083D383C283D583F2
:100C0000C483ECE1F3E086839783A087B187C8E0D3
:100C1000D0E0D183C083C5E2D0E0D383C283C7E6EE
:100C2000D0E0D583C483E2E1F3E086839783A08795
:100C3000B187518340831382128275836483E8E015
:100C4000F3E086839783A087B1871182108240E802
:100C500050E05383428355834483EEEFF2E0868372
:100C60009783A087B1875183408353834283158242
:100C70001482E4EFF2E086839783A087B18743E98B
:100C800050E05183408346EF50E053834283158206
:100C90001482EAEEF2E086839783A087B1873183DE
:100CA000208333832283158214828AE0E4E9F3E00F
:100CB000AEEAB2E001900D928A95E1F78AE0EAE8A7
:100CC000F3E0A8EBB2E001900D928A95E1F78AE09B
:100CD000E0E8F3E0A2ECB2E001900D928A95E1F732
:100CE0008AE0E6E7F3E0ACECB2E001900D928A9581
:100CF000E1F78AE0ECE6F3E0A6EDB2E001900D92B8
:100D00008A95E1F78AE0E2E6F3E0A0EEB2E0019036
:100D10000D928A95E1F78AE0E8E5F3E0A2E7B2E018
:100D200001900D928A95E1F78AE0EEE4F3E0ACE7FA
:100D3000B2E001900D928A95E1F78AE0E4E4F3E0F5
:100D4000A6E8B2E001900D928A95E1F78AE0EAE325
:100D5000F3E0A0E9B2E001900D928A95E1F78AE014
:100D6000E0E3F3E0AAE9B2E001900D928A95E1F7A1
:100D70008AE0E6E2F3E0A4EAB2E001900D928A95FF
:100D8000E1F78AE0ECE1F3E0A6E3B2E001900D9236
:100D90008A95E1F78AE0EAEEF2E0A0E4B2E00190A1
:100DA0000D928A95E1F78AE0E8E0F3E0AAE4B2E088
:100DB00001900D928A95E1F78AE0EEEFF2E0A4E56A
:100DC000B2E001900D928A95E1F78AE0E4EFF2E05B
:100DD000AEE5B2E001900D928A95E1F78AE0E2E19A
:100DE000F3E0A8E6B2E001900D928A95E1F78AE07F
:100DF000EAE8F3E0AEEBB1E001900D928A95E1F7FD
:100E00008AE0E4E4F3E0A8ECB1E001900D928A9569
:100E1000E1F78AE0E6E2F3E0A2EDB1E001900D92A5
:100E20008A95E1F78AE0EEE9F3E0ACEDB1E00190FC
:100E30000D928A95E1F78AE0E4E9F3E0A6EEB1E0ED
:100E400001900D928A95E1F78AE0E8E5F3E0A0EFE2
:100E5000B1E001900D928A95E1F78AE0E6E7F3E0D0
:100E6000AAEFB1E001900D928A95E1F78AE0EEE9F0
:100E7000F3E0A4E0B2E001900D928A95E1F78AE0F8
:100E8000E0E8F3E0AEE0B2E001900D928A95E1F780
:100E90008AE0E0E3F3E0A8E1B2E001900D928A95E8
:100EA000E1F78AE0E2E6F3E0A2E2B2E001900D921F
:100EB0008A95E1F78AE0EEE9F3E0ACE2B2E0019076
:100EC0000D928A95E1F7E4ECF3E08AE090E09183FB
:100ED000808389E090E0938382838BE090E0958328
:100EE000848381E086831086178214861386128697
:100EF0001186168615868AE0E2EBF3E0DF011D928B
:100F00008A95E9F7E8EAF3E087E090E0918380834F
:100F100086E090E09383828325E030E0358324836C
:100F200024E030E03783268323E030E031872087D8
:100F3000158A148A178A168A918F808F82E090E032
:100F4000938F828FDF91CF910895789484B58260DA
:100F500084BD84B5816084BD85B5826085BD85B55D
:100F6000816085BD80916E00816080936E001092DB
:100F70008100809181008260809381008091810056
:100F800081608093810080918000816080938000E7
:100F90008091B10084608093B1008091B000816045
:100FA0008093B00080917A00846080937A00809171
:100FB0007A00826080937A0080917A0081608093C9
:100FC0007A0080917A00806880937A001092C10044
:100FD00060E08091A8030E94C50160E08091AA03AF
:100FE0000E94C50160E08091AC030E94C50160E0F1
:100FF0008091AE030E94C50160E08091B0030E9421
:10100000C50161E08091C4030E94C50161E0809147
:10101000C6030E94C50161E08091C8030E94C5011A
:1010200061E08DE00E94C501E0913101F091320153
:1010300082E08083E0912D01F0912E011082E091F9
:101040002F01F09130018FEC808310923901E091F3
:101050003501F091360186E08083E0913301F09113
:101060003401808180618083E0913301F09134010B
:10107000808188608083E0913301F0913401808128
:1010800080688083E0913301F091340180818F7D0D
:10109000808344E150E064E170E084E190E00E94EC
:1010A00042031AE0CC24CA9433E0D32EE12CF12C75
:1010B00008E28EE00E946002843F91400CF091C0F3
:1010C00084E090E00E94DE0083E090E00E94DE0079
:1010D0008091CA03811103C08EE993E09FC0809183
:1010E000BE039091BF038130910509F44AC082305C
:1010F000910509F499C0892B09F098C08FE00E94EE
:101100006002EC0180E10E9460022FEF30E0DC0120
:101110000E941909A70196010E942B09DA01C90151
:10112000C038D1051CF440E050E027C09E01205893
:1011300031092038310518F440E050E01BC09E0111
:101140003A952F3F310509F020F440E050E0BC0112
:1011500008C09E0132502038310530F4AC0160E007
:1011600070E080E090E00AC0C058D240AC01C038C6
:10117000D10518F460E070E001C0BC010E94420398
:1011800055C08FE00E946002EC0180E10E94600285
:10119000092E000CAA0BBB0BBC01CD0122E0660F8F
:1011A000771F881F991F2A95D1F7A70196010E94E2
:1011B0002B09129F5001139FB00C112423E030E043
:1011C000DE010E941909A70196010E942B09029FC6
:1011D000C001039F900D11248A0D9B1D82549E4FC8
:1011E0001DC081E090E00E94DE0082E090E00E945D
:1011F000DE0087E00E94B5002091CA03892B89F0A8
:10120000222309F469CF2091BC033091BD03129FC2
:10121000C001139F900D11248A5C9D4F0E944A04C7
:1012200005C0222309F458CF0E9487030E94750449
:1012300040CF0E946C09B7FF0895821B930B08955D
:10124000EE0FFF1F0590F491E02D099481E090E0EE
:10125000F8940C947B09052E97FB1EF400940E94D1
:10126000420957FD07D00E944A0907FC03D04EF4FB
:101270000C94420950954095309521953F4F4F4F22
:101280005F4F089590958095709561957F4F8F4F32
:101290009F4F0895A1E21A2EAA1BBB1BFD010DC092
:1012A000AA1FBB1FEE1FFF1FA217B307E407F50716
:1012B00020F0A21BB30BE40BF50B661F771F881FF2
:1012C000991F1A9469F760957095809590959B0188
:1012D000AC01BD01CF010895A29FB001B39FC00131
:1012E000A39F700D811D1124911DB29F700D811D52
:0A12F0001124911D0895F894FFCF1A
:1012FA000100000000000000FB027702C402A20203
:08130A00B60253040D0A0000B5
:00000001FF
