:100000000C9462000C948A000C948A000C948A0070
:100010000C948A000C948A000C948A000C948A0038
:100020000C948A000C948A000C948A000C948A0028
:100030000C948A000C948A000C948A000C948A0018
:100040000C94C3020C948A000C9433030C940D039B
:100050000C948A000C948A000C948A000C948A00F8
:100060000C948A000C948A000000000023002600F3
:10007000290000000000240027002A0000000000E2
:10008000250028002B0004040404040404040202D4
:100090000202020203030303030301020408102007
:1000A0004080010204081020010204081020000012
:1000B0000008000201000003040700000000000027
:1000C0000000650311241FBECFEFD4E0DEBFCDBF1B
:1000D00022E0A8E1B1E001C01D92A93CB207E1F71E
:1000E00011E0A0E0B1E0E0E7FBE002C005900D9276
:1000F000A831B107D9F710E0C2E6D0E004C02197DB
:10010000FE010E94AB05C136D107C9F70E94CB049E
:100110000C94B6050C940000833081F028F48130F3
:1001200099F08230A1F008958730A9F08830B9F0B5
:100130008430D1F4809180008F7D03C08091800055
:100140008F7780938000089584B58F7702C084B53F
:100150008F7D84BD08958091B0008F7703C080911A
:10016000B0008F7D8093B00008951F93CF93DF93ED
:10017000282F30E0F901E255FF4F8491F901E6564E
:10018000FF4FD491F901EA57FF4FC491CC23C9F036
:10019000162F81110E948C00EC2FF0E0EE0FFF1F54
:1001A000E458FF4FA591B4918FB7F894111105C091
:1001B0009C91ED2FE095E92302C0EC91ED2BEC939F
:1001C0008FBFDF91CF911F910895CF93DF9390E080
:1001D000FC01E656FF4F2491FC01EA57FF4F849142
:1001E000882361F190E0880F991FFC01EE58FF4FC2
:1001F000C591D491FC01E458FF4FA591B4916111D0
:1002000009C09FB7F8948881209582238883EC9158
:100210002E230BC0623061F49FB7F8943881822F8F
:10022000809583238883EC912E2B2C939FBF06C04F
:100230008FB7F894E8812E2B28838FBFDF91CF9161
:1002400008951F93CF93DF93182FEB0161E00E9475
:10025000E500209711F460E004C0CF3FD10539F4E8
:1002600061E0812FDF91CF911F910C94B500E12FB8
:10027000F0E0E255FF4FE491E330F9F048F4E1306B
:10028000B9F0E230A1F584B5806284BDC8BD34C048
:10029000E730E9F0E83019F1E43049F58091800069
:1002A000806280938000D0938B00C0938A0024C02A
:1002B00084B5806884BDC7BD1FC080918000806800
:1002C00080938000D0938900C093880015C08091EE
:1002D000B00080688093B000C093B3000DC08091DF
:1002E000B00080628093B000C093B40005C0C038F5
:1002F000D1050CF0B5CFAFCFDF91CF911F9108950D
:10030000CF92DF92EF92FF920F931F93CF93DF93E1
:100310006C017A018B01C0E0D0E0CE15DF0589F0D9
:10032000D8016D918D01D601ED91FC910190F08184
:10033000E02DC6010995892B11F47E0102C021969A
:10034000ECCFC701DF91CF911F910F91FF90EF90FC
:10035000DF90CF900895FC01918D828D981761F008
:10036000828DDF01A80FB11D5D968C91928D9F5FEC
:100370009F73928F90E008958FEF9FEF0895FC0197
:10038000918D828D981731F0828DE80FF11D858D4A
:1003900090E008958FEF9FEF0895FC01918D228DDD
:1003A000892F90E0805C9F4F821B91098F73992762
:1003B000089581E291E00E94CD0121E0892B09F4AA
:1003C00020E0822F0895FC01848DDF01A80FB11D6C
:1003D000A35ABF4F2C91848D90E001968F7399277B
:1003E000848FA689B7892C93A089B1898C91806468
:1003F0008C93938D848D981306C00288F389E02D29
:1004000080818F7D80830895EF92FF920F931F93D9
:10041000CF93DF93EC0181E0888F9B8D8C8D9813B7
:1004200005C0E889F989808185FD24C0F62E0B8DF1
:1004300010E00F5F1F4F0F731127E02E8C8DE81215
:100440000CC00FB607FCFACFE889F989808185FFD7
:10045000F5CFCE010E94E301F1CF8B8DFE01E80FB5
:10046000F11DE35AFF4FF0820B8FEA89FB898081EF
:10047000806207C0EE89FF896083E889F9898081FD
:100480008064808381E090E0DF91CF911F910F9194
:10049000FF90EF900895FF920F931F93CF93DF93F8
:1004A00000D0CDB7DEB7182F062FF42E8091C802EA
:1004B0008823A9F08091C4025A8399830E94210164
:1004C000612F9981792F8091C2020E9421016F2DA5
:1004D0005A81752F8091C6020E94210108C040E018
:1004E00050E060E070E080E090E00E944B02612FFD
:1004F00081E291E00E940402602F81E291E00E947B
:1005000004026F2D81E291E00E94040242E050E07B
:1005100064E171E081E291E00F900F90DF91CF9163
:100520001F910F91FF900C948001CF93DF93EC010A
:10053000888D8823C9F0EA89FB89808185FD05C003
:10054000A889B9898C9186FD0FC00FB607FCF5CF3D
:10055000808185FFF2CFA889B9898C9185FFEDCF85
:10056000CE010E94E301E7CFDF91CF91089580E0B3
:1005700090E0892B29F00E94D90181110C94000090
:1005800008950E94B1051F920F920FB60F92112489
:100590002F933F938F939F93AF93BF9380911D01B0
:1005A00090911E01A0911F01B091200130911C017A
:1005B00023E0230F2D3720F40196A11DB11D05C0A6
:1005C00026E8230F0296A11DB11D20931C018093E4
:1005D0001D0190931E01A0931F01B09320018091F3
:1005E000180190911901A0911A01B0911B01019677
:1005F000A11DB11D8093180190931901A0931A01B8
:10060000B0931B01BF91AF919F918F913F912F911B
:100610000F900FBE0F901F9018951F920F920FB65C
:100620000F9211242F933F934F935F936F937F9378
:100630008F939F93AF93BF93EF93FF9381E291E0EA
:100640000E94E301FF91EF91BF91AF919F918F9134
:100650007F916F915F914F913F912F910F900FBEBE
:100660000F901F9018951F920F920FB60F921124A2
:100670002F938F939F93EF93FF93E0913101F0912C
:1006800032018081E0913701F091380182FD12C082
:10069000908180913A018F5F8F7320913B01821787
:1006A00051F0E0913A01F0E0EF5DFE4F958F8093BD
:1006B0003A0101C08081FF91EF919F918F912F911D
:1006C0000F900FBE0F901F901895CF93DF93E1E22C
:1006D000F1E01382128288EE93E0A0E0B0E0848320
:1006E0009583A683B78388E091E09183808385EC2E
:1006F00090E09587848784EC90E09787868760EC0C
:1007000070E0718B608B81EC90E0938B828B82EC3C
:1007100090E0958B848B86EC90E0978B868B118E86
:10072000128E138E148EE2ECF2E08AE090E0918358
:10073000808389E090E0938382838BE090E09583CF
:10074000848381E086838AE0E8EBF2E0DF011D929A
:100750008A95E9F7EEEAF2E087E090E09183808302
:1007600086E090E09383828385E090E095838483A4
:10077000E4EAF2E080E090E0A0E8BFE386839783BC
:10078000A087B1872FEF30E031832083138212825C
:1007900015821482EAE9F2E086839783A087B18705
:1007A000118210823383228315821482E0E9F2E001
:1007B00086839783A087B187118210821382128269
:1007C00035832483E6E8F2E086839783A087B187A8
:1007D00045E950E0518340834BE150E0538342832D
:1007E0004AEB50E055834483ECE7F2E0868397833D
:1007F000A087B18731832083138212824FE750E0B4
:1008000055834483E2E7F2E086839783A087B1872C
:1008100043E350E051834083C8ECD0E0D383C283EC
:1008200035832483E8E6F2E086839783A087B18747
:10083000318320835383428355834483EEE5F2E082
:1008400086839783A087B187318320833383228374
:1008500046E650E055834483E4E5F2E086839783DF
:10086000A087B18751834083338322835583448398
:10087000EAE4F2E086839783A087B18751834083BF
:100880003383228335832483E0E4F2E086839783F5
:10089000A087B18751834083538342833583248368
:1008A000E6E3F2E086839783A087B1877183608354
:1008B00073836283758364838AE0E4EAF2E0AAEFDB
:1008C000B1E001900D928A95E1F78AE0EAE9F2E061
:1008D000A4E0B2E001900D928A95E1F78AE0E0E9A8
:1008E000F2E0AEE0B2E001900D928A95E1F78AE085
:1008F000E6E8F2E0A8E1B2E001900D928A95E1F716
:100900008AE0ECE7F2E0A2E2B2E001900D928A9573
:10091000E1F78AE0E2E7F2E0ACE2B2E001900D92AA
:100920008A95E1F78AE0E8E6F2E0AEEBB1E001900B
:100930000D928A95E1F78AE0EEE5F2E0A8ECB1E0ED
:1009400001900D928A95E1F78AE0E4E5F2E0A2EDEC
:10095000B1E001900D928A95E1F78AE0EAE4F2E0D5
:10096000ACEDB1E001900D928A95E1F78AE0E0E408
:10097000F2E0A6EEB1E001900D928A95E1F78AE0EF
:10098000E6E3F2E0A0EFB1E001900D928A95E1F785
:10099000DF91CF910895789484B5826084BD84B549
:1009A000816084BD85B5826085BD85B5816085BD6A
:1009B00080916E00816080936E0010928100809122
:1009C00081008260809381008091810081608093AA
:1009D0008100809180008160809380008091B100CF
:1009E00084608093B1008091B00081608093B000FA
:1009F00080917A00846080937A0080917A0082608E
:100A000080937A0080917A00816080937A0080914F
:100A10007A00806880937A001092C10060E0809133
:100A2000AE020E94E50060E08091B0020E94E50005
:100A300060E08091B2020E94E50061E089E00E94DE
:100A4000E50061E08AE00E94E50061E08BE00E9441
:100A5000E50061E08DE00E94E50060E086E00E9434
:100A6000E500E0913101F091320182E08083E09174
:100A70002D01F0912E011082E0912F01F0913001B3
:100A80008FEC808310923901E0913501F0913601AD
:100A900086E08083E0913301F091340180818061B0
:100AA0008083E0913301F0913401808188608083FC
:100AB000E0913301F0913401808180688083E0917E
:100AC0003301F091340180818F7D808340E050E0DC
:100AD00060E070E08FEF90E00E944B02C5EBD0E049
:100AE00001EA10E03DE8E32E30E0F32EFE018491B0
:100AF000F801C490F701D490DD20E1F081110E944B
:100B00008C008D2D90E0880F991F88599F4FFC0114
:100B1000A591B4918C91C82269F04091FE01509149
:100B2000FF016091FC017091FD018091FA019091AB
:100B3000FB010CC04091C2015091C3016091C00102
:100B40007091C1018091BE019091BF010E944B0242
:100B50000E94B702CBCFEE0FFF1F0590F491E02D5E
:100B6000099481E090E0F8940C94B605F894FFCFD6
:100B7000010000000000000004028001CD01AB0173
:080B8000BF0195020D0A0000FF
:00000001FF
