:100000000C94FA000C9422010C9422010C9422010D
:100010000C9422010C9422010C9422010C942201D4
:100020000C9422010C9422010C94A7050C9419063F
:100030000C9422010C9422010C9422010C942201B4
:100040000C9422010C9422010C9422010C942201A4
:100050000C9422010C9422010C9422010C945D0555
:100060000C9422010C9422010C9422010C94220184
:100070000C9422010C9422010C9422010C94220174
:100080000C9422010C9422010C9422010C94220164
:100090000C9422010C9422010C9422010C94220154
:1000A0000C9422010C9422010C9422017A017D010E
:1000B0006C01700176019E019E019E018101850106
:1000C00089018F0193019E0199015B026002650223
:1000D0006F027902C302C302C30283028D02970238
:1000E000A102AE02C302B602080B00020202010026
:1000F000090400000102020000052400100105248B
:1001000001010104240206052406000107058103FC
:1001100010004009040100020A0000000705020265
:1001200040000007058302400000040309044172F7
:100130006475696E6F204C4C430041726475696E42
:100140006F2059756E00120100020000004041232B
:10015000418000010102030112010002EF0201408F
:10016000412341800001010203010000000024003E
:1001700027002A002D003000000000002500280084
:100180002B002E0031000000000023002600290073
:100190002C002F00040404040403040502020202DC
:1001A0000403020202020606060606060404020210
:1001B00002040404080201104080401020408040E6
:1001C00080080204018040201002011080102040AD
:1001D00040200000000200090F0000030401000C91
:1001E000000000000000000000000000000000000F
:1001F0000000560811241FBECFEFDAE0DEBFCDBFEE
:1002000011E0A0E0B1E0EAE9F4E102C005900D924E
:10021000A632B107D9F722E0A6E2B1E001C01D92F3
:10022000A332B207E1F710E0CAEFD0E004C0219793
:10023000FE010E94400AC93FD107C9F70E9419096F
:100240000C944B0A0C940000FC018091490181112F
:1002500003C08FEF9FEF08959FB7F89482E08093DB
:10026000E9002091F20030E01216130614F421E0A8
:1002700030E02115310559F0289884E68093480133
:100280008091F10080838091F200882319F09FBF54
:10029000C90108958BE68093E800F9CF8091400171
:1002A00081110DC082E080933C0184E080933D0188
:1002B00010923F0110923E0181E0809340018CE357
:1002C00091E0089590E0FC013197EF30F105B0F531
:1002D000EA5AFF4F0C94400A809180008F7703C048
:1002E000809180008F7D80938000089580918000B0
:1002F000877FF9CF84B58F7702C084B58F7D84BDA9
:100300000895809190008F7707C0809190008F7D35
:1003100003C080919000877F809390000895809122
:10032000C0008F7703C08091C0008F7D8093C00094
:1003300008958091C200877F8093C2000895CF9373
:10034000DF93282F30E0F901EE52FE4F8491F9013E
:10035000ED54FE4FD491F901EC56FE4FC491CC23DD
:1003600091F081110E946201EC2FF0E0EE0FFF1F6F
:10037000EA57FE4FA591B491EC91ED2381E090E016
:1003800021F480E002C080E090E0DF91CF910895F9
:100390001F93CF93DF93282F30E0F901EE52FE4FE9
:1003A0008491F901ED54FE4FD491F901EC56FE4FC2
:1003B000C491CC23C9F0162F81110E946201EC2F49
:1003C000F0E0EE0FFF1FE858FE4FA591B4918FB7F4
:1003D000F894111105C09C91ED2FE095E92302C01E
:1003E000EC91ED2BEC938FBFDF91CF911F9108958E
:1003F000CF93DF9390E0FC01ED54FE4F2491FC017C
:10040000EC56FE4F8491882361F190E0880F991F8C
:10041000FC01E659FE4FC591D491FC01E858FE4F0E
:10042000A591B491611109C09FB7F8948881209576
:1004300082238883EC912E230BC0623061F49FB736
:10044000F8943881822F809583238883EC912E2B1A
:100450002C939FBF06C08FB7F894E8812E2B28837A
:100460008FBFDF91CF9108951F93CF93DF93182F04
:10047000EB0161E00E94F801209711F460E004C0F4
:10048000CF3FD10539F461E0812FDF91CF911F91EA
:100490000C94C801E12FF0E0EE52FE4FE4914E2F94
:1004A00050E0FA013197EF30F10508F06CC0EB59DC
:1004B000FF4F0C94400A84B5806884BDC7BD68C0F6
:1004C00084B5806284BDC8BD63C0809180008068AF
:1004D00080938000D0938900C093880059C0809198
:1004E0008000806280938000D0938B00C0938A004C
:1004F0004FC080918000886080938000D0938D00F1
:10050000C0938C0045C080919000806880939000DB
:10051000D0939900C09398003BC080919000806276
:1005200080939000D0939B00C0939A0031C080913B
:100530009000886080939000D0939D00C0939C00B1
:1005400027C08091C00080688093C0008091C00067
:100550008F7B8093C000C093CF001AC08091C000F1
:1005600080628093C000C093D00012C08091C2000E
:1005700088608093C2008091C2008B7F8093C2000C
:10058000C093D20005C0C038D1050CF07CCF76CF27
:10059000DF91CF911F9108953FB7F8948091380172
:1005A00090913901A0913A01B0913B0126B5A89BE9
:1005B00005C02F3F19F00196A11DB11D3FBFBA2FF5
:1005C000A92F982F8827820F911DA11DB11DBC0155
:1005D000CD0142E0660F771F881F991F4A95D1F71A
:1005E0000895CF92DF92EF92FF920E94CC026B01AE
:1005F0007C010E94CC02DC01CB018C199D09AE0963
:10060000BF09883E9340A105B10598F3FF90EF9094
:10061000DF90CF90089540912D0150912E012091AF
:100620002B0130912C0142175307B4F49091E8004C
:100630009570E1F39091E80092FD19C08093F1006C
:1006400080912D0190912E0101968F739927892B0E
:1006500019F48EEF8093E80080912D0190912E0186
:10066000019690932E0180932D0181E0089580E002
:100670000895CF92DF92EF92FF920F931F93CF9343
:10068000DF931F92CDB7DEB7182F062FE42E862FEB
:10069000880F8E5F99830E940B0383E00E940B03F7
:1006A000F12EC12E9981D92E8C2D8F19801798F497
:1006B000F601E7FE02C0849101C080810E940B0315
:1006C000182F80E00E940B038123FFEFCF1ADF0A6F
:1006D0008111EACF01C081E00F90DF91CF911F918E
:1006E0000F91FF90EF90DF90CF900895DF92EF92FF
:1006F000FF920F931F93CF93DF93D82E8A017B0134
:10070000E40EF51EEB01CE15DF0571F0D7FE03C038
:10071000FE01849101C088810E940B032196811102
:10072000F2CF8FEF9FEF01C0C801DF91CF911F91F2
:100730000F91FF90EF90DF9008950F931F93CF9349
:10074000DF931F92CDB7DEB782E0898342E450E0A9
:1007500068EE70E080E80E9476030E944E01DC01A2
:1007600012960D911C9113970115110569F0D8018E
:10077000ED91FC910280F381E02DBE016F5F7F4F10
:10078000C801099597FF07C089810F90DF91CF912C
:100790001F910F910895F80100851185E5CF6150F3
:1007A00030F02091F100FC0120830196F8CF2898C9
:1007B00084E6809348010895CF92DF92EF92FF92F2
:1007C0000F931F93CF93DF936C017A018B01C0E0ED
:1007D000D0E0CE15DF0589F0D8016D918D01D601ED
:1007E000ED91FC910190F081E02DC6010995892BD6
:1007F00011F47E0102C02196ECCFC701DF91CF91A9
:100800001F910F91FF90EF90DF90CF9008958F92FE
:100810009F92AF92BF92CF92DF92EF92FF920F938F
:100820001F93CF93DF935C016B018A0180910B01D1
:10083000882309F459C080914901882309F454C0E0
:100840008091310180FF05C08091E000826080933B
:10085000E000E8018AEFF82E93E0E92E2FE3822EE4
:100860003AE3932E2097C9F18FB7F894E092E9000C
:100870009091E80095FF06C09091F200282D291B69
:10088000922F01C090E08FBF911106C0FA94FF2013
:1008900059F10E94F102E6CF292F30E0C217D307A9
:1008A0000CF49C2F8FB7F894E092E9002091E800B7
:1008B00025FF11C0292F30E0C21BD30BF601915048
:1008C00020F041914093F100FACFC20ED31E9091D7
:1008D000E80095FF13C08FBFC5CF5D9884E6809375
:1008E00032011016110644F081E090E0F501938387
:1008F000828380E090E005C0C80103C09092E800C8
:10090000EACFDF91CF911F910F91FF90EF90DF9091
:10091000CF90BF90AF909F908F900895CF93DF932B
:100920001F92CDB7DEB76983DC01ED91FC910280A7
:10093000F381E02D41E050E0BE016F5F7F4F0995EC
:100940000F90DF91CF910895FF920F931F93CF9354
:10095000DF9300D0CDB7DEB7182F062FF42E80918D
:1009600022028823A9F080911E025A8399830E9453
:100970003402612F9981792F80911C020E943402E8
:100980006F2D5A81752F809120020E94340208C079
:1009900040E050E060E070E080E090E00E94A4045D
:1009A000612F8AE491E00E948E04602F8AE491E036
:1009B0000E948E046F2D8AE491E00E948E04E091E3
:1009C0004A01F0914B010280F381E02D42E050E0BA
:1009D00063E271E08AE491E00F900F90DF91CF9194
:1009E0001F910F91FF90099483E08093E90080911B
:1009F000F200882319F08AE38093E8000895CF93EA
:100A0000DF931F92CDB7DEB7FC018485958597FDF6
:100A100005C02FEF3FEF358724870BC0CE0101962D
:100A20000E942401019719F4898190E002C08FEFA0
:100A30009FEF0F90DF91CF9108950F931F93CF9366
:100A4000DF931F92CDB7DEB78C01FC0184859585BD
:100A500097FF0EC0CE0101960E942401019719F460
:100A6000298130E002C02FEF3FEFF801358724875E
:100A7000F801848595850F90DF91CF911F910F919B
:100A80000895FC018485958597FD0BC09FB7F89468
:100A900082E08093E9008091F2009FBF90E0019690
:100AA00008959FB7F89482E08093E9008091F20066
:100AB0009FBF90E008950E94460A1F920F920FB6C2
:100AC0000F9211242F933F938F939F93AF93BF93D4
:100AD0008091340190913501A0913601B091370198
:100AE0003091330123E0230F2D3720F40196A11D0F
:100AF000B11D05C026E8230F0296A11DB11D20934C
:100B000033018093340190933501A0933601B09363
:100B100037018091380190913901A0913A01B0914B
:100B20003B010196A11DB11D8093380190933901BD
:100B3000A0933A01B0933B01BF91AF919F918F91E8
:100B40003F912F910F900FBE0F901F9018951F92FD
:100B50000F920FB60F9211248F939F938091E10013
:100B60009091E100937F9093E10083FF0FC010927A
:100B7000E90091E09093EB001092EC0092E39093E7
:100B8000ED001092490198E09093F00082FF20C0A0
:100B900093E09093E9009091F200992319F09AE381
:100BA0009093E80090913201992339F090913201AD
:100BB000915090933201992389F1909148019923A2
:100BC00039F090914801915090934801992341F157
:100BD00084FF10C08091E2008E7E81608093E200ED
:100BE0008091E1008F7E8093E100809131018E7EC3
:100BF000806111C080FF16C08091E2008E7E80610E
:100C00008093E2008091E1008E7E8093E1008091EC
:100C100031018E7E81608093310104C05D9ACDCF19
:100C2000289AD6CF9F918F910F900FBE0F901F9053
:100C300018951F920F920FB60F921124CF92DF9248
:100C4000EF92FF920F931F932F933F934F935F93D6
:100C50006F937F938F939F93AF93BF93EF93FF9384
:100C6000CF93DF93CDB7DEB76C97DEBFCDBF1092C9
:100C7000E9008091E80083FFFAC168E0CE01459663
:100C80000E94CF0382EF8093E8008D8987FF05C023
:100C90009091E80090FFFCCF03C09EEF9093E80096
:100CA000982F907609F0C6C09E892F89188D9111D2
:100CB0000CC0803829F4809130018093F10002C08B
:100CC0001092F1001092F10047C1422F50E0512BD9
:100CD000913051F4811140C14130510509F03CC1BE
:100CE000809130018D7F0BC0933061F4811134C14C
:100CF0004130510509F030C180913001826080930C
:100D000030012AC1953041F48091E80080FFFCCF8A
:100D100020682093E30020C1963009F05FC0EB8C7F
:100D2000FC8C1092E90010922E0110922D011230CD
:100D300091F510922C0110922B010E949D0399E0D5
:100D4000BE016F5F7F4FDB01E92F1D92EA95E9F746
:100D500099831A8391E09E8390EA98879AEF998706
:100D600020912D0130912E01275F3F4F3C832B8333
:100D70008D831092E90010922E0110922D01F092B5
:100D80002C01E0922B0149E050E080E00E947603C4
:100D90000E949D03E1C0F0922C01E0922B010E9481
:100DA0004E01DC011296ED90FC901397E114F104D2
:100DB00009F4C0C0D701ED91FC910480F581E02DCC
:100DC000BE016B5E7F4FC7010995009719F00CF0CB
:100DD000C3C0C6C0F701E084F184E8CF973009F4BE
:100DE000BFC0983021F481E08093F100B5C0993004
:100DF00009F0B2C0837009F0B3C0EDE0F1E081E02A
:100E000021E036E39081992361F08093E9002093FB
:100E1000EB0091919093EC003093ED008F5F873061
:100E200089F78EE78093EA001092EA008F89809319
:100E3000490192C08B8D9C8D1092E90010922E0179
:100E400010922D0190932C0180932B01898D81119B
:100E500056C08E899D89913A59F4813209F080C03B
:100E600047E050E064E071E080E00E94760374C0E7
:100E7000913209F075C0833289F4888D90E0982F03
:100E800088272F89822BA0E0B0E080930001909307
:100E90000101A0930201B09303015EC0803269F4A6
:100EA0008091E80082FFFCCF67E084E091E00E943F
:100EB000CF038BEF8093E80006C0823209F04CC06C
:100EC0008F8980930B0180912F01882319F0EEEF19
:100ED000FAE002C0E0E0F8E08091040190910501A1
:100EE000A0910601B0910701803B9440A105B10596
:100EF00009F088C080910B0180FFA0C083C00E94D0
:100F00004E01DC0112960D911C91139701151105EC
:100F100039F1D801ED91FC910190F081E02DBE01F5
:100F20006B5E7F4FC8010995811116C0F8010085DD
:100F30001185ECCF1130C1F0133091F48F898823E3
:100F400009F455C08230E9F440E86BE08AE391E0AF
:100F50000E943903882321F08EEF8093E80087C038
:100F600081E28093EB0083C08B8D9C8D089711F4F8
:100F700010932A0180912A01811136C066E471E044
:100F800038C0813029F440E86BE08EE291E0E0CF98
:100F9000833031F70E944E01DC011296ED90FC90F7
:100FA00013978E010F5F1F4F6801E114F10479F070
:100FB000D701ED91FC910680F781E02DB801C701C2
:100FC0000995080F111DF701E084F184EECFD801D7
:100FD0001C92F60101900020E9F73197BF016C19CE
:100FE0007D0940E0C601B4CF68E571E002C06AE265
:100FF00071E06115710509F4B3CFFB01449150E034
:1010000080E833CF0FB6F894A8958091600088618E
:1010100080936000109260000FBEA895EE3F2AE01A
:10102000F20739F08091FE0A9091FF0A9183808344
:1010300093CF1092FF0A1092FE0A8ECFEE3F8AE005
:10104000F80731F0808191819093FF0A8093FE0A26
:1010500087E797E7918380839BE088E10FB6F89458
:10106000A895809360000FBE9093600075CF6C963A
:101070000FB6F894DEBF0FBECDBFDF91CF91FF91C9
:10108000EF91BF91AF919F918F917F916F915F9100
:101090004F913F912F911F910F91FF90EF90DF9013
:1010A000CF900F900FBE0F901F901895EAE4F1E0DB
:1010B0001382128288EE93E0A0E0B0E084839583EF
:1010C000A683B78387E191E0918380838FEF9FEFC1
:1010D00095878487ECE1F2E08AE090E09183808359
:1010E00089E090E0938382838BE090E09583848312
:1010F00081E08683E2E1F2E087E090E09183808303
:1011000086E090E09383828385E090E095838483FA
:10111000E8E0F2E080E090E0A0E8BFE38683978318
:10112000A087B1872FEF30E03183208313821282B2
:1011300015821482EEEFF1E086839783A087B18752
:10114000118210823383228315821482E4EFF1E04E
:1011500086839783A087B1871182108213821282BF
:1011600035832483EAEEF1E086839783A087B187F5
:1011700045E950E0518340834BE150E05383428383
:101180004AEB50E055834483E0EEF1E08683978399
:10119000A087B18731832083138212824FE750E00A
:1011A00055834483E6EDF1E086839783A087B1877A
:1011B00083E390E09183808388EC90E09383828343
:1011C000358324838AE0E8E0F2E0AAE9B1E0019007
:1011D0000D928A95E1F78AE0EEEFF1E0A4EAB1E042
:1011E00001900D928A95E1F78AE0E4EFF1E0AEEA32
:1011F000B1E001900D928A95E1F78AE0EAEEF1E024
:10120000A8EBB1E001900D928A95E1F78AE0E0EE5B
:10121000F1E0A2ECB1E001900D928A95E1F78AE04D
:10122000E6EDF1E0ACECB1E001900D928A95E1F7CA
:101230000895789484B5826084BD84B5816084BD4E
:1012400085B5826085BD85B5816085BD80916E0064
:10125000816080936E001092810080918100826095
:1012600080938100809181008160809381008091D2
:1012700080008160809380008091910082608093E3
:101280009100809191008160809391008091900005
:101290008160809390008091C10084608093C10040
:1012A0008091C10082608093C1008091C100816003
:1012B0008093C1008091C30081608093C3008091BE
:1012C000C00082608093C0008091C20081608093E2
:1012D000C20080917A00846080937A0080917A00C5
:1012E000826080937A0080917A00816080937A0096
:1012F00080917A00806880937A0010924901109260
:101300003001109231018091D70081608093D70025
:1013100080EA8093D80089B5806189BD89B58260F3
:1013200089BD09B400FEFDCF0E94F1028091D80072
:101330008F7C80618093D8008091E000807F8093D3
:10134000E0008091E1008E7E8093E1008DE080934B
:10135000E200559A209AEEEFFFE7859194918B3F3A
:101360009C4D19F481E080932F0160E0809112027E
:101370000E94F80160E0809114020E94F80160E090
:10138000809116020E94F80161E089E00E94F80154
:1013900061E08AE00E94F80161E08BE00E94F801C0
:1013A00061E08DE00E94F80160E086E00E94F801B3
:1013B0008FEF9FEF909357018093560140E050E0EC
:1013C00060E070E08FEF90E00E94A4048AE0F82EC5
:1013D00000E010E087E00E949F01892B49F4809192
:1013E0002601909127010196909327018093260171
:1013F000809126019091270185369105ACF080916E
:101400002801909129018530910534F4019690933B
:1014100029018093280104C010922901109228010B
:101420001092270110922601C0912601D091270128
:101430001C161D062CF486E00E949F01892BD1F416
:101440008091280190912901F89EF001F99EF00DFC
:101450001124E656FE4F448155816281738180815B
:1014600091810E94A4040115110509F4B3CF0E94D3
:101470000000B0CF2197D0932701C0932601E0CF81
:10148000EE0FFF1F0590F491E02D099481E090E0AC
:0A149000F8940C944B0AF894FFCF77
:10149A00FFFFFFFF00E100000000000000C18081A3
:1014AA00000000000000008E0407044105FF041D2F
:0614BA0005F4040D0A0018
:00000001FF
