:100000000C9462000C948A000C948A000C948A0070
:100010000C948A000C948A000C948A000C948A0038
:100020000C948A000C948A000C948A000C948A0028
:100030000C948A000C948A000C948A000C948A0018
:100040000C94C3020C948A000C9433030C940D039B
:100050000C948A000C948A000C948A000C948A00F8
:100060000C948A000C948A000000000023002600F3
:10007000290000000000240027002A0000000000E2
:10008000250028002B0004040404040404040202D4
:100090000202020203030303030301020408102007
:1000A0004080010204081020010204081020000012
:1000B0000008000201000003040700000000000027
:1000C0000000650311241FBECFEFD4E0DEBFCDBF1B
:1000D00011E0A0E0B1E0E0E7FBE002C005900D9286
:1000E000A431B107D9F722E0A4E1B1E001C01D922B
:1000F000A53CB207E1F710E0C2E6D0E004C02197CA
:10010000FE010E94AB05C136D107C9F70E94CB049E
:100110000C94B6050C940000833081F028F48130F3
:1001200099F08230A1F008958730A9F08830B9F0B5
:100130008430D1F4809180008F7D03C08091800055
:100140008F7780938000089584B58F7702C084B53F
:100150008F7D84BD08958091B0008F7703C080911A
:10016000B0008F7D8093B00008951F93CF93DF93ED
:10017000282F30E0F901E255FF4F8491F901E6564E
:10018000FF4FD491F901EA57FF4FC491CC23C9F036
:10019000162F81110E948C00EC2FF0E0EE0FFF1F54
:1001A000E458FF4FA591B4918FB7F894111105C091
:1001B0009C91ED2FE095E92302C0EC91ED2BEC939F
:1001C0008FBFDF91CF911F910895CF93DF9390E080
:1001D000FC01E656FF4F2491FC01EA57FF4F849142
:1001E000882361F190E0880F991FFC01EE58FF4FC2
:1001F000C591D491FC01E458FF4FA591B4916111D0
:1002000009C09FB7F8948881209582238883EC9158
:100210002E230BC0623061F49FB7F8943881822F8F
:10022000809583238883EC912E2B2C939FBF06C04F
:100230008FB7F894E8812E2B28838FBFDF91CF9161
:1002400008951F93CF93DF93182FEB0161E00E9475
:10025000E500209711F460E004C0CF3FD10539F4E8
:1002600061E0812FDF91CF911F910C94B500E12FB8
:10027000F0E0E255FF4FE491E330F9F048F4E1306B
:10028000B9F0E230A1F584B5806284BDC8BD34C048
:10029000E730E9F0E83019F1E43049F58091800069
:1002A000806280938000D0938B00C0938A0024C02A
:1002B00084B5806884BDC7BD1FC080918000806800
:1002C00080938000D0938900C093880015C08091EE
:1002D000B00080688093B000C093B3000DC08091DF
:1002E000B00080628093B000C093B40005C0C038F5
:1002F000D1050CF0B5CFAFCFDF91CF911F9108950D
:10030000CF92DF92EF92FF920F931F93CF93DF93E1
:100310006C017A018B01C0E0D0E0CE15DF0589F0D9
:10032000D8016D918D01D601ED91FC910190F08184
:10033000E02DC6010995892B11F47E0102C021969A
:10034000ECCFC701DF91CF911F910F91FF90EF90FC
:10035000DF90CF900895FC01918D828D981761F008
:10036000828DDF01A80FB11D5D968C91928D9F5FEC
:100370009F73928F90E008958FEF9FEF0895FC0197
:10038000918D828D981731F0828DE80FF11D858D4A
:1003900090E008958FEF9FEF0895FC01918D228DDD
:1003A000892F90E0805C9F4F821B91098F73992762
:1003B00008958DE191E00E94CD0121E0892B09F49F
:1003C00020E0822F0895FC01848DDF01A80FB11D6C
:1003D000A35ABF4F2C91848D90E001968F7399277B
:1003E000848FA689B7892C93A089B1898C91806468
:1003F0008C93938D848D981306C00288F389E02D29
:1004000080818F7D80830895EF92FF920F931F93D9
:10041000CF93DF93EC0181E0888F9B8D8C8D9813B7
:1004200005C0E889F989808185FD24C0F62E0B8DF1
:1004300010E00F5F1F4F0F731127E02E8C8DE81215
:100440000CC00FB607FCFACFE889F989808185FFD7
:10045000F5CFCE010E94E301F1CF8B8DFE01E80FB5
:10046000F11DE35AFF4FF0820B8FEA89FB898081EF
:10047000806207C0EE89FF896083E889F9898081FD
:100480008064808381E090E0DF91CF911F910F9194
:10049000FF90EF900895FF920F931F93CF93DF93F8
:1004A00000D0CDB7DEB7182F062FF42E8091C402EE
:1004B0008823A9F08091C0025A8399830E94210168
:1004C000612F9981792F8091BE020E9421016F2DA9
:1004D0005A81752F8091C2020E94210108C040E01C
:1004E00050E060E070E080E090E00E944B02612FFD
:1004F0008DE191E00E940402602F8DE191E00E9465
:1005000004026F2D8DE191E00E94040242E050E070
:1005100060E171E08DE191E00F900F90DF91CF915C
:100520001F910F91FF900C948001CF93DF93EC010A
:10053000888D8823C9F0EA89FB89808185FD05C003
:10054000A889B9898C9186FD0FC00FB607FCF5CF3D
:10055000808185FFF2CFA889B9898C9185FFEDCF85
:10056000CE010E94E301E7CFDF91CF91089580E0B3
:1005700090E0892B29F00E94D90181110C94000090
:1005800008950E94B1051F920F920FB60F92112489
:100590002F933F938F939F93AF93BF9380911901B4
:1005A00090911A01A0911B01B0911C01309118018A
:1005B00023E0230F2D3720F40196A11DB11D05C0A6
:1005C00026E8230F0296A11DB11D209318018093E8
:1005D000190190931A01A0931B01B0931C01809103
:1005E000140190911501A0911601B0911701019687
:1005F000A11DB11D8093140190931501A0931601C4
:10060000B0931701BF91AF919F918F913F912F911F
:100610000F900FBE0F901F9018951F920F920FB65C
:100620000F9211242F933F934F935F936F937F9378
:100630008F939F93AF93BF93EF93FF938DE191E0DF
:100640000E94E301FF91EF91BF91AF919F918F9134
:100650007F916F915F914F913F912F910F900FBEBE
:100660000F901F9018951F920F920FB60F921124A2
:100670002F938F939F93EF93FF93E0912D01F09130
:100680002E018081E0913301F091340182FD12C08E
:100690009081809136018F5F8F732091370182178F
:1006A00051F0E0913601F0E0E35EFE4F958F8093CC
:1006B000360101C08081FF91EF919F918F912F9121
:1006C0000F900FBE0F901F901895CF93DF93EDE121
:1006D000F1E01382128288EE93E0A0E0B0E0848320
:1006E0009583A683B78384E091E09183808385EC32
:1006F00090E09587848784EC90E09787868760EC0C
:1007000070E0718B608B81EC90E0938B828B82EC3C
:1007100090E0958B848B86EC90E0978B868B118E86
:10072000128E138E148EEEEBF2E08AE090E091834D
:10073000808389E090E0938382838BE090E09583CF
:10074000848381E086838AE0E4EBF2E0DF011D929E
:100750008A95E9F7EAEAF2E087E090E09183808306
:1007600086E090E09383828385E090E095838483A4
:10077000E0EAF2E080E090E0A0E8BFE386839783C0
:10078000A087B1872FEF30E031832083138212825C
:1007900015821482E6E9F2E086839783A087B18709
:1007A000118210823383228315821482ECE8F2E0F6
:1007B00086839783A087B187118210821382128269
:1007C00035832483E2E8F2E086839783A087B187AC
:1007D00045E950E0518340834BE150E0538342832D
:1007E0004AEB50E055834483E8E7F2E08683978341
:1007F000A087B18731832083138212824FE750E0B4
:1008000055834483EEE6F2E086839783A087B18721
:1008100043E350E051834083C8ECD0E0D383C283EC
:1008200035832483E4E6F2E086839783A087B1874B
:10083000318320835383428355834483EAE5F2E086
:1008400086839783A087B187318320833383228374
:1008500046E650E055834483E0E5F2E086839783E3
:10086000A087B18751834083338322835583448398
:10087000E6E4F2E086839783A087B18751834083C3
:100880003383228335832483ECE3F2E086839783EA
:10089000A087B18751834083538342833583248368
:1008A000E2E3F2E086839783A087B1877183608358
:1008B00073836283758364838AE0E0EAF2E0A6EFE3
:1008C000B1E001900D928A95E1F78AE0E6E9F2E065
:1008D000A0E0B2E001900D928A95E1F78AE0ECE8A1
:1008E000F2E0AAE0B2E001900D928A95E1F78AE089
:1008F000E2E8F2E0A4E1B2E001900D928A95E1F71E
:100900008AE0E8E7F2E0AEE1B2E001900D928A956C
:10091000E1F78AE0EEE6F2E0A8E2B2E001900D92A3
:100920008A95E1F78AE0E4E6F2E0AAEBB1E0019013
:100930000D928A95E1F78AE0EAE5F2E0A4ECB1E0F5
:1009400001900D928A95E1F78AE0E0E5F2E0AEECE5
:10095000B1E001900D928A95E1F78AE0E6E4F2E0D9
:10096000A8EDB1E001900D928A95E1F78AE0ECE301
:10097000F2E0A2EEB1E001900D928A95E1F78AE0F3
:10098000E2E3F2E0ACEEB1E001900D928A95E1F77E
:10099000DF91CF910895789484B5826084BD84B549
:1009A000816084BD85B5826085BD85B5816085BD6A
:1009B00080916E00816080936E0010928100809122
:1009C00081008260809381008091810081608093AA
:1009D0008100809180008160809380008091B100CF
:1009E00084608093B1008091B00081608093B000FA
:1009F00080917A00846080937A0080917A0082608E
:100A000080937A0080917A00816080937A0080914F
:100A10007A00806880937A001092C10060E0809133
:100A2000AA020E94E50060E08091AC020E94E5000D
:100A300060E08091AE020E94E50061E089E00E94E2
:100A4000E50061E08AE00E94E50061E08BE00E9441
:100A5000E50061E08DE00E94E50060E086E00E9434
:100A6000E500E0912D01F0912E0182E08083E0917C
:100A70002901F0912A011082E0912B01F0912C01C3
:100A80008FEC808310923501E0913101F0913201B9
:100A900086E08083E0912F01F091300180818061B8
:100AA0008083E0912F01F091300180818860808304
:100AB000E0912F01F0913001808180688083E09186
:100AC0002F01F091300180818F7D808340E050E0E4
:100AD00060E070E08FEF90E00E944B02C5EBD0E049
:100AE00001EA10E03DE8E32E30E0F32EFE018491B0
:100AF000F801C490F701D490DD20E1F081110E944B
:100B00008C008D2D90E0880F991F88599F4FFC0114
:100B1000A591B4918C91C82269F04091FA0150914D
:100B2000FB016091F8017091F9018091F6019091BB
:100B3000F7010CC04091BE015091BF016091BC0112
:100B40007091BD018091BA019091BB010E944B024E
:100B50000E94B702CBCFEE0FFF1F0590F491E02D5E
:100B6000099481E090E0F8940C94B605F894FFCFD6
:100B70000000000004028001CD01AB01BF0195021D
:040B80000D0A00005A
:00000001FF
